{
  "contractName": "Lottery",
  "abi": [
    {
      "constant": true,
      "inputs": [
        {
          "name": "",
          "type": "uint256"
        }
      ],
      "name": "teamAddresses",
      "outputs": [
        {
          "name": "",
          "type": "address"
        }
      ],
      "payable": false,
      "stateMutability": "view",
      "type": "function"
    },
    {
      "constant": true,
      "inputs": [],
      "name": "endTime",
      "outputs": [
        {
          "name": "",
          "type": "uint256"
        }
      ],
      "payable": false,
      "stateMutability": "view",
      "type": "function"
    },
    {
      "constant": true,
      "inputs": [
        {
          "name": "",
          "type": "address"
        }
      ],
      "name": "admins",
      "outputs": [
        {
          "name": "",
          "type": "bool"
        }
      ],
      "payable": false,
      "stateMutability": "view",
      "type": "function"
    },
    {
      "constant": true,
      "inputs": [],
      "name": "owner",
      "outputs": [
        {
          "name": "",
          "type": "address"
        }
      ],
      "payable": false,
      "stateMutability": "view",
      "type": "function"
    },
    {
      "constant": true,
      "inputs": [
        {
          "name": "",
          "type": "address"
        }
      ],
      "name": "teams",
      "outputs": [
        {
          "name": "name",
          "type": "string"
        },
        {
          "name": "password",
          "type": "string"
        },
        {
          "name": "points",
          "type": "uint256"
        }
      ],
      "payable": false,
      "stateMutability": "view",
      "type": "function"
    },
    {
      "inputs": [],
      "payable": false,
      "stateMutability": "nonpayable",
      "type": "constructor"
    },
    {
      "payable": true,
      "stateMutability": "payable",
      "type": "fallback"
    },
    {
      "anonymous": false,
      "inputs": [
        {
          "indexed": false,
          "name": "name",
          "type": "string"
        }
      ],
      "name": "LogTeamRegistered",
      "type": "event"
    },
    {
      "anonymous": false,
      "inputs": [
        {
          "indexed": false,
          "name": "teamAddress",
          "type": "address"
        }
      ],
      "name": "LogGuessMade",
      "type": "event"
    },
    {
      "anonymous": false,
      "inputs": [
        {
          "indexed": false,
          "name": "name",
          "type": "string"
        }
      ],
      "name": "LogTeamCorrectGuess",
      "type": "event"
    },
    {
      "anonymous": false,
      "inputs": [
        {
          "indexed": false,
          "name": "sender",
          "type": "address"
        },
        {
          "indexed": false,
          "name": "amount",
          "type": "uint256"
        }
      ],
      "name": "LogAddressPaid",
      "type": "event"
    },
    {
      "anonymous": false,
      "inputs": [
        {
          "indexed": false,
          "name": "_newSeed",
          "type": "uint8"
        }
      ],
      "name": "LogResetOracle",
      "type": "event"
    },
    {
      "constant": false,
      "inputs": [
        {
          "name": "seed",
          "type": "uint8"
        }
      ],
      "name": "initialiseLottery",
      "outputs": [],
      "payable": false,
      "stateMutability": "nonpayable",
      "type": "function"
    },
    {
      "constant": true,
      "inputs": [
        {
          "name": "_newSeed",
          "type": "uint8"
        }
      ],
      "name": "reset",
      "outputs": [],
      "payable": false,
      "stateMutability": "view",
      "type": "function"
    },
    {
      "constant": false,
      "inputs": [
        {
          "name": "_walletAddress",
          "type": "address"
        },
        {
          "name": "_teamName",
          "type": "string"
        },
        {
          "name": "_password",
          "type": "string"
        }
      ],
      "name": "registerTeam",
      "outputs": [],
      "payable": true,
      "stateMutability": "payable",
      "type": "function"
    },
    {
      "constant": false,
      "inputs": [
        {
          "name": "_team",
          "type": "address"
        },
        {
          "name": "_guess",
          "type": "uint256"
        }
      ],
      "name": "makeAGuess",
      "outputs": [
        {
          "name": "",
          "type": "bool"
        }
      ],
      "payable": false,
      "stateMutability": "nonpayable",
      "type": "function"
    },
    {
      "constant": false,
      "inputs": [],
      "name": "payoutWinningTeam",
      "outputs": [
        {
          "name": "",
          "type": "bool"
        }
      ],
      "payable": false,
      "stateMutability": "nonpayable",
      "type": "function"
    },
    {
      "constant": true,
      "inputs": [],
      "name": "getTeamCount",
      "outputs": [
        {
          "name": "",
          "type": "uint256"
        }
      ],
      "payable": false,
      "stateMutability": "view",
      "type": "function"
    },
    {
      "constant": true,
      "inputs": [
        {
          "name": "_num",
          "type": "uint256"
        }
      ],
      "name": "getTeamDetails",
      "outputs": [
        {
          "name": "",
          "type": "string"
        },
        {
          "name": "",
          "type": "address"
        },
        {
          "name": "",
          "type": "uint256"
        }
      ],
      "payable": false,
      "stateMutability": "view",
      "type": "function"
    },
    {
      "constant": false,
      "inputs": [
        {
          "name": "_adminAddress",
          "type": "address"
        }
      ],
      "name": "addAdmin",
      "outputs": [],
      "payable": false,
      "stateMutability": "nonpayable",
      "type": "function"
    }
  ],
  "bytecode": "0x608060405234801561001057600080fd5b50336000806101000a81548173ffffffffffffffffffffffffffffffffffffffff021916908373ffffffffffffffffffffffffffffffffffffffff16021790555060018060003373ffffffffffffffffffffffffffffffffffffffff1673ffffffffffffffffffffffffffffffffffffffff16815260200190815260200160002060006101000a81548160ff0219169083151502179055506001806000732a614d42323681e470087992df29aeee7263d55c73ffffffffffffffffffffffffffffffffffffffff16815260200190815260200160002060006101000a81548160ff0219169083151502179055506001806000737f65e7a5079ed0a4469cbd4429a616238dcb098573ffffffffffffffffffffffffffffffffffffffff1673ffffffffffffffffffffffffffffffffffffffff16815260200190815260200160002060006101000a81548160ff021916908315150217905550600180600073142563a96d55a57e7003f82a05f2f1fee420cf9873ffffffffffffffffffffffffffffffffffffffff1673ffffffffffffffffffffffffffffffffffffffff16815260200190815260200160002060006101000a81548160ff021916908315150217905550600180600073e60c14bd115958ed5429af7591e25e5dd992fbd373ffffffffffffffffffffffffffffffffffffffff16815260200190815260200160002060006101000a81548160ff021916908315150217905550600180600073627306090abab3a6e1400e9345bc60c78a8bef5773ffffffffffffffffffffffffffffffffffffffff16815260200190815260200160002060006101000a81548160ff02191690831515021790555060018060007352facd14353e4f9926e0cf6eeac71bc6770267b873ffffffffffffffffffffffffffffffffffffffff1673ffffffffffffffffffffffffffffffffffffffff16815260200190815260200160002060006101000a81548160ff021916908315150217905550611590806102f76000396000f3006080604052600436106100c5576000357c0100000000000000000000000000000000000000000000000000000000900463ffffffff1680632419217e146101325780633197cbb61461019f578063429b62e5146101ca578063464362da14610225578063704802751461025557806382257ad3146102985780638b83b78a146102fd5780638da5cb5b146103635780639905a9f7146103ba578063a031004f146103e5578063c4583240146104c5578063d314cbc3146105f4578063e52a6b7114610624575b7fd9fca726a61094de2cbd4efee08a13d9ad87e7f89ad0a9bd0baca38287b139473334604051808373ffffffffffffffffffffffffffffffffffffffff1673ffffffffffffffffffffffffffffffffffffffff1681526020018281526020019250505060405180910390a1005b34801561013e57600080fd5b5061015d60048036038101908080359060200190929190505050610653565b604051808273ffffffffffffffffffffffffffffffffffffffff1673ffffffffffffffffffffffffffffffffffffffff16815260200191505060405180910390f35b3480156101ab57600080fd5b506101b4610691565b6040518082815260200191505060405180910390f35b3480156101d657600080fd5b5061020b600480360381019080803573ffffffffffffffffffffffffffffffffffffffff169060200190929190505050610697565b604051808215151515815260200191505060405180910390f35b34801561023157600080fd5b50610253600480360381019080803560ff1690602001909291905050506106b7565b005b34801561026157600080fd5b50610296600480360381019080803573ffffffffffffffffffffffffffffffffffffffff169060200190929190505050610925565b005b3480156102a457600080fd5b506102e3600480360381019080803573ffffffffffffffffffffffffffffffffffffffff169060200190929190803590602001909291905050506109d7565b604051808215151515815260200191505060405180910390f35b610361600480360381019080803573ffffffffffffffffffffffffffffffffffffffff169060200190929190803590602001908201803590602001919091929391929390803590602001908201803590602001919091929391929390505050610cb0565b005b34801561036f57600080fd5b50610378610e8b565b604051808273ffffffffffffffffffffffffffffffffffffffff1673ffffffffffffffffffffffffffffffffffffffff16815260200191505060405180910390f35b3480156103c657600080fd5b506103cf610eb0565b6040518082815260200191505060405180910390f35b3480156103f157600080fd5b5061041060048036038101908080359060200190929190505050610ebd565b60405180806020018473ffffffffffffffffffffffffffffffffffffffff1673ffffffffffffffffffffffffffffffffffffffff168152602001838152602001828103825285818151815260200191508051906020019080838360005b8381101561048857808201518184015260208101905061046d565b50505050905090810190601f1680156104b55780820380516001836020036101000a031916815260200191505b5094505050505060405180910390f35b3480156104d157600080fd5b50610506600480360381019080803573ffffffffffffffffffffffffffffffffffffffff16906020019092919050505061102b565b604051808060200180602001848152602001838103835286818151815260200191508051906020019080838360005b83811015610550578082015181840152602081019050610535565b50505050905090810190601f16801561057d5780820380516001836020036101000a031916815260200191505b50838103825285818151815260200191508051906020019080838360005b838110156105b657808201518184015260208101905061059b565b50505050905090810190601f1680156105e35780820380516001836020036101000a031916815260200191505b509550505050505060405180910390f35b34801561060057600080fd5b50610622600480360381019080803560ff169060200190929190505050611185565b005b34801561063057600080fd5b506106396111d1565b604051808215151515815260200191505060405180910390f35b60058181548110151561066257fe5b906000526020600020016000915054906101000a900473ffffffffffffffffffffffffffffffffffffffff1681565b60035481565b60016020528060005260406000206000915054906101000a900460ff1681565b600160003373ffffffffffffffffffffffffffffffffffffffff1673ffffffffffffffffffffffffffffffffffffffff16815260200190815260200160002060009054906101000a900460ff16151561070f57600080fd5b6000600580549050111561072c576005600061072b9190611377565b5b80610735611398565b808260ff1660ff168152602001915050604051809103906000f080158015610761573d6000803e3d6000fd5b50600260006101000a81548173ffffffffffffffffffffffffffffffffffffffff021916908373ffffffffffffffffffffffffffffffffffffffff16021790555062093a8042016003819055506060604051908101604052806040805190810160405280600c81526020017f44656661756c74205465616d000000000000000000000000000000000000000081525081526020016040805190810160405280600881526020017f50617373776f726400000000000000000000000000000000000000000000000081525081526020016005815250600460008073ffffffffffffffffffffffffffffffffffffffff1673ffffffffffffffffffffffffffffffffffffffff16815260200190815260200160002060008201518160000190805190602001906108909291906113a8565b5060208201518160010190805190602001906108ad9291906113a8565b50604082015181600201559050506005600090806001815401808255809150509060018203906000526020600020016000909192909190916101000a81548173ffffffffffffffffffffffffffffffffffffffff021916908373ffffffffffffffffffffffffffffffffffffffff1602179055505050565b600160003373ffffffffffffffffffffffffffffffffffffffff1673ffffffffffffffffffffffffffffffffffffffff16815260200190815260200160002060009054906101000a900460ff16151561097d57600080fd5b60018060008373ffffffffffffffffffffffffffffffffffffffff1673ffffffffffffffffffffffffffffffffffffffff16815260200190815260200160002060006101000a81548160ff02191690831515021790555050565b6000807fa5529f8f5afe5eef0d93275252c948976d53109cf1a6da2ab3cd41621b04e5e484604051808273ffffffffffffffffffffffffffffffffffffffff1673ffffffffffffffffffffffffffffffffffffffff16815260200191505060405180910390a1600260009054906101000a900473ffffffffffffffffffffffffffffffffffffffff1673ffffffffffffffffffffffffffffffffffffffff1663dbdff2c16040518163ffffffff167c0100000000000000000000000000000000000000000000000000000000028152600401602060405180830381600087803b158015610ac357600080fd5b505af1158015610ad7573d6000803e3d6000fd5b505050506040513d6020811015610aed57600080fd5b8101908080519060200190929190505050905082811415610c53576064600460008673ffffffffffffffffffffffffffffffffffffffff1673ffffffffffffffffffffffffffffffffffffffff168152602001908152602001600020600201819055507f465a2b81ef9a4e50ffb55c13e029606e8297dc5fd9b637877dd35523d138acd2600460008673ffffffffffffffffffffffffffffffffffffffff1673ffffffffffffffffffffffffffffffffffffffff1681526020019081526020016000206000016040518080602001828103825283818154600181600116156101000203166002900481526020019150805460018160011615610100020316600290048015610c3c5780601f10610c1157610100808354040283529160200191610c3c565b820191906000526020600020905b815481529060010190602001808311610c1f57829003601f168201915b50509250505060405180910390a160019150610ca9565b6001600460008673ffffffffffffffffffffffffffffffffffffffff1673ffffffffffffffffffffffffffffffffffffffff16815260200190815260200160002060020160008282540392505081905550600091505b5092915050565b671bc16d674ec8000034141515610cc657600080fd5b60606040519081016040528085858080601f016020809104026020016040519081016040528093929190818152602001838380828437820191505050505050815260200183838080601f01602080910402602001604051908101604052809392919081815260200183838082843782019150505050505081526020016005815250600460008773ffffffffffffffffffffffffffffffffffffffff1673ffffffffffffffffffffffffffffffffffffffff1681526020019081526020016000206000820151816000019080519060200190610da29291906113a8565b506020820151816001019080519060200190610dbf9291906113a8565b506040820151816002015590505060058590806001815401808255809150509060018203906000526020600020016000909192909190916101000a81548173ffffffffffffffffffffffffffffffffffffffff021916908373ffffffffffffffffffffffffffffffffffffffff160217905550507f0206c3646a479d0be164d3a1eccf5079fa0192706c07330d032ec246553175f28484604051808060200182810382528484828181526020019250808284378201915050935050505060405180910390a15050505050565b6000809054906101000a900473ffffffffffffffffffffffffffffffffffffffff1681565b6000600580549050905090565b6060600080600060046000600587815481101515610ed757fe5b9060005260206000200160009054906101000a900473ffffffffffffffffffffffffffffffffffffffff1673ffffffffffffffffffffffffffffffffffffffff1673ffffffffffffffffffffffffffffffffffffffff168152602001908152602001600020905080600001600586815481101515610f5157fe5b9060005260206000200160009054906101000a900473ffffffffffffffffffffffffffffffffffffffff168260020154828054600181600116156101000203166002900480601f0160208091040260200160405190810160405280929190818152602001828054600181600116156101000203166002900480156110165780601f10610feb57610100808354040283529160200191611016565b820191906000526020600020905b815481529060010190602001808311610ff957829003601f168201915b50505050509250935093509350509193909250565b6004602052806000526040600020600091509050806000018054600181600116156101000203166002900480601f0160208091040260200160405190810160405280929190818152602001828054600181600116156101000203166002900480156110d75780601f106110ac576101008083540402835291602001916110d7565b820191906000526020600020905b8154815290600101906020018083116110ba57829003601f168201915b505050505090806001018054600181600116156101000203166002900480601f0160208091040260200160405190810160405280929190818152602001828054600181600116156101000203166002900480156111755780601f1061114a57610100808354040283529160200191611175565b820191906000526020600020905b81548152906001019060200180831161115857829003601f168201915b5050505050908060020154905083565b62093a8042016003819055507fdc5649dd53dd4ffbe6efaf1b89ffbb48fb9a6715f8ee5466c868fe216591997e81604051808260ff1660ff16815260200191505060405180910390a150565b60008060008091505b600580549050821015611371576064600460006005858154811015156111fc57fe5b9060005260206000200160009054906101000a900473ffffffffffffffffffffffffffffffffffffffff1673ffffffffffffffffffffffffffffffffffffffff1673ffffffffffffffffffffffffffffffffffffffff168152602001908152602001600020600201541015156113645760058281548110151561127b57fe5b9060005260206000200160009054906101000a900473ffffffffffffffffffffffffffffffffffffffff1673ffffffffffffffffffffffffffffffffffffffff16673782dace9d90000060405160006040518083038185875af19250505090506000600460006005858154811015156112f057fe5b9060005260206000200160009054906101000a900473ffffffffffffffffffffffffffffffffffffffff1673ffffffffffffffffffffffffffffffffffffffff1673ffffffffffffffffffffffffffffffffffffffff16815260200190815260200160002060020181905550809250611372565b81806001019250506111da565b5b505090565b50805460008255906000526020600020908101906113959190611428565b50565b6040516101178061144e83390190565b828054600181600116156101000203166002900490600052602060002090601f016020900481019282601f106113e957805160ff1916838001178555611417565b82800160010185558215611417579182015b828111156114165782518255916020019190600101906113fb565b5b5090506114249190611428565b5090565b61144a91905b8082111561144657600081600090555060010161142e565b5090565b905600608060405234801561001057600080fd5b5060405160208061011783398101806040528101908080519060200190929190505050806000806101000a81548160ff021916908360ff1602179055505060bb8061005c6000396000f300608060405260043610603f576000357c0100000000000000000000000000000000000000000000000000000000900463ffffffff168063dbdff2c1146044575b600080fd5b348015604f57600080fd5b506056606c565b6040518082815260200191505060405180910390f35b60008060009054906101000a900460ff1660ff1643811515608957fe5b069050905600a165627a7a7230582073baaf6100b73f6635d1ff0f2983d0008acabbb324d731738d6dc8dd32b35ed10029a165627a7a72305820a91dd663b76b0c5e20e4ce150245d13075be872dc355ff3f152f4aa61502332c0029",
  "source": "pragma solidity ^0.4.2;\n// WARNING THIS CODE IS AWFUL, NEVER DO ANYTHING LIKE THIS\ncontract Oracle{\n\tuint8 private seed; // Hide seed value!!\n\tconstructor (uint8 _seed) public {\n\t\tseed = _seed;\n\t}\n\n\tfunction getRandomNumber() external returns (uint256){\n\t\treturn block.number % seed;\n\t}\n\n}\n\n// WARNING THIS CODE IS AWFUL, NEVER DO ANYTHING LIKE THIS\n\ncontract Lottery {\n\n\tstruct Team {\n\t\tstring name;\n\t\tstring password;\n\t\tuint256 points;\n\t}\n\n\taddress public owner;\n\tmapping(address => bool) public admins;\n\n\tOracle private oracle;\n\tuint256 public endTime;\n\n\t// public keyword (!!!)\n\tmapping(address => Team) public teams;\n\taddress [] public teamAddresses;\n\n\tevent LogTeamRegistered(string name);\n\tevent LogGuessMade(address teamAddress);\n\tevent LogTeamCorrectGuess(string name);\n\tevent LogAddressPaid(address sender, uint256 amount);\n\tevent LogResetOracle(uint8 _newSeed);\n\n\tmodifier onlyOwner(){\n\t\tif (msg.sender==owner) {\n\t\t\t_;\n\t\t}\n\t}\n\n\tmodifier onlyAdmins() {\n\t\trequire (admins[msg.sender]);\n\t\t_;\n\t}\n\n\tmodifier needsReset() {\n\t\tif (teamAddresses.length > 0) {\n\t\t\tdelete teamAddresses;\n\t\t}\n\t\t_;\n\t}\n\n\n\t// Constructor - set the owner of the contract\n\tconstructor() public {\n\t\towner = msg.sender;\n\t\tadmins[msg.sender] = true;\n\t\tadmins[0x2a614d42323681e470087992df29aeee7263d55c] = true;\n\t\tadmins[0x7F65E7A5079Ed0A4469Cbd4429A616238DCb0985] = true;\n\t\tadmins[0x142563a96D55A57E7003F82a05f2f1FEe420cf98] = true;\n\t\tadmins[0xe60c14bd115958ed5429af7591e25e5dd992fbd3] = true;\n\t\tadmins[0x627306090abab3a6e1400e9345bc60c78a8bef57] = true;\n\t\tadmins[0x52faCd14353E4F9926E0cf6eeAC71bc6770267B8] = true;\n\t}\n\n\t// initialise the oracle and lottery end time\n\tfunction initialiseLottery(uint8 seed) onlyAdmins needsReset {\n\t\toracle = new Oracle(seed);\n\t\tendTime = now + 7 days;\n\t\tteams[address(0)] = Team(\"Default Team\", \"Password\", 5);\n\t\tteamAddresses.push(address(0));\n\t}\n\n\t// reset the lottery\n\tfunction reset(uint8 _newSeed) public view {\n\t\tendTime = now + 7 days;\n\t    emit LogResetOracle(_newSeed);\n\t}\n\n\t// register a team\n\tfunction registerTeam(address _walletAddress,string _teamName, string _password) external payable {\n\t\t// 2 ether deposit to register a team\n\t\trequire(msg.value == 2 ether);\n\t\t// add to mapping as well as another array\n\t\tteams[_walletAddress] = Team(_teamName, _password, 5);\n\t\tteamAddresses.push(_walletAddress);\n\t\temit LogTeamRegistered(_teamName);\n\t}\n\n\t// make your guess , return a success flag\n\tfunction makeAGuess(address _team,uint256 _guess) external returns (bool) {\n\t\t// no checks for team being registered (???)\n\t\temit LogGuessMade(_team);\n\t\t// get a random number\n\t\tuint256 random = oracle.getRandomNumber();\n\t\tif(random==_guess){\n\t\t\t// give 100 points\n\t\t\tteams[_team].points =+ 100;\n\t\t\temit LogTeamCorrectGuess(teams[_team].name);\n\t        return true;\n\t\t}\n\t\telse{\n\t\t\t// take away a point (!!!)\n\t\t    teams[_team].points -= 1;\n\t\t\treturn false;\n\t\t}\n\t}\n\n\t// once the lottery has finished pay out the best teams\n\tfunction payoutWinningTeam() external returns (bool) {\n\n\t\t// if you are a winning team you get paid double the deposit (4 ether)\n\t    for (uint ii=0; ii<teamAddresses.length; ii++) {\n\t        if (teams[teamAddresses[ii]].points>=100) {\n\t\t\t\t// no gas limit on value transfer call (!!!)\n\t\t\t\tbool sent = teamAddresses[ii].call.value(4 ether)();\n\t\t\t\tteams[teamAddresses[ii]].points = 0;\n\t\t\t\treturn sent;\n\t\t\t}\n\t    }\n\t}\n\n\tfunction getTeamCount() view returns (uint256){\n\t\treturn teamAddresses.length;\n\t}\n\n\tfunction getTeamDetails(uint256 _num) view returns(string,address,uint256){\n\t\tTeam team = teams[teamAddresses[_num]];\n\t\treturn(team.name,teamAddresses[_num],team.points);\n\t}\n\n\tfunction resetOracle(uint8 _newSeed) internal {\n\t    oracle = new Oracle(_newSeed);\n\t}\n\n\t// catch any ether sent to the contract\n\tfunction() payable {\n\t\temit LogAddressPaid(msg.sender,msg.value);\n\t}\n\n\tfunction addAdmin(address _adminAddress) onlyAdmins {\n\t\tadmins[_adminAddress] = true;\n\t}\n\n}\n",
  "sourcePath": "/Users/jackleslie/Desktop/Extropy/LotteryGame/contracts/Lottery.sol",
  "compiler": {
    "name": "solc",
    "version": "0.4.24+commit.e67f0147.Emscripten.clang"
  },
  "schemaVersion": "2.0.1",
  "updatedAt": "2018-07-31T13:28:53.516Z"
}