{
  "contractName": "Oracle",
  "abi": [
    {
      "inputs": [
        {
          "name": "_seed",
          "type": "uint8"
        }
      ],
      "payable": false,
      "stateMutability": "nonpayable",
      "type": "constructor"
    },
    {
      "constant": false,
      "inputs": [],
      "name": "getRandomNumber",
      "outputs": [
        {
          "name": "",
          "type": "uint256"
        }
      ],
      "payable": false,
      "stateMutability": "nonpayable",
      "type": "function"
    }
  ],
  "bytecode": "0x608060405234801561001057600080fd5b5060405160208061011783398101806040528101908080519060200190929190505050806000806101000a81548160ff021916908360ff1602179055505060bb8061005c6000396000f300608060405260043610603f576000357c0100000000000000000000000000000000000000000000000000000000900463ffffffff168063dbdff2c1146044575b600080fd5b348015604f57600080fd5b506056606c565b6040518082815260200191505060405180910390f35b60008060009054906101000a900460ff1660ff1643811515608957fe5b069050905600a165627a7a7230582073baaf6100b73f6635d1ff0f2983d0008acabbb324d731738d6dc8dd32b35ed10029",
  "source": "pragma solidity ^0.4.2;\n// WARNING THIS CODE IS AWFUL, NEVER DO ANYTHING LIKE THIS\ncontract Oracle{\n\tuint8 private seed; // Hide seed value!!\n\tconstructor (uint8 _seed) public {\n\t\tseed = _seed;\n\t}\n\n\tfunction getRandomNumber() external returns (uint256){\n\t\treturn block.number % seed;\n\t}\n\n}\n\n// WARNING THIS CODE IS AWFUL, NEVER DO ANYTHING LIKE THIS\n\ncontract Lottery {\n\n\tstruct Team {\n\t\tstring name;\n\t\tstring password;\n\t\tuint256 points;\n\t}\n\n\taddress public owner;\n\tmapping(address => bool) public admins;\n\n\tOracle private oracle;\n\tuint256 public endTime;\n\n\t// public keyword (!!!)\n\tmapping(address => Team) public teams;\n\taddress [] public teamAddresses;\n\n\tevent LogTeamRegistered(string name);\n\tevent LogGuessMade(address teamAddress);\n\tevent LogTeamCorrectGuess(string name);\n\tevent LogAddressPaid(address sender, uint256 amount);\n\tevent LogResetOracle(uint8 _newSeed);\n\n\tmodifier onlyOwner(){\n\t\tif (msg.sender==owner) {\n\t\t\t_;\n\t\t}\n\t}\n\n\tmodifier onlyAdmins() {\n\t\trequire (admins[msg.sender]);\n\t\t_;\n\t}\n\n\tmodifier needsReset() {\n\t\tif (teamAddresses.length > 0) {\n\t\t\tdelete teamAddresses;\n\t\t}\n\t\t_;\n\t}\n\n\n\t// Constructor - set the owner of the contract\n\tconstructor() public {\n\t\towner = msg.sender;\n\t\tadmins[msg.sender] = true;\n\t\tadmins[0x2a614d42323681e470087992df29aeee7263d55c] = true;\n\t\tadmins[0x7F65E7A5079Ed0A4469Cbd4429A616238DCb0985] = true;\n\t\tadmins[0x142563a96D55A57E7003F82a05f2f1FEe420cf98] = true;\n\t\tadmins[0xe60c14bd115958ed5429af7591e25e5dd992fbd3] = true;\n\t\tadmins[0x627306090abab3a6e1400e9345bc60c78a8bef57] = true;\n\t\tadmins[0x52faCd14353E4F9926E0cf6eeAC71bc6770267B8] = true;\n\t}\n\n\t// initialise the oracle and lottery end time\n\tfunction initialiseLottery(uint8 seed) onlyAdmins needsReset {\n\t\toracle = new Oracle(seed);\n\t\tendTime = now + 7 days;\n\t\tteams[address(0)] = Team(\"Default Team\", \"Password\", 5);\n\t\tteamAddresses.push(address(0));\n\t}\n\n\t// reset the lottery\n\tfunction reset(uint8 _newSeed) public view {\n\t\tendTime = now + 7 days;\n\t    emit LogResetOracle(_newSeed);\n\t}\n\n\t// register a team\n\tfunction registerTeam(address _walletAddress,string _teamName, string _password) external payable {\n\t\t// 2 ether deposit to register a team\n\t\trequire(msg.value == 2 ether);\n\t\t// add to mapping as well as another array\n\t\tteams[_walletAddress] = Team(_teamName, _password, 5);\n\t\tteamAddresses.push(_walletAddress);\n\t\temit LogTeamRegistered(_teamName);\n\t}\n\n\t// make your guess , return a success flag\n\tfunction makeAGuess(address _team,uint256 _guess) external returns (bool) {\n\t\t// no checks for team being registered (???)\n\t\temit LogGuessMade(_team);\n\t\t// get a random number\n\t\tuint256 random = oracle.getRandomNumber();\n\t\tif(random==_guess){\n\t\t\t// give 100 points\n\t\t\tteams[_team].points =+ 100;\n\t\t\temit LogTeamCorrectGuess(teams[_team].name);\n\t        return true;\n\t\t}\n\t\telse{\n\t\t\t// take away a point (!!!)\n\t\t    teams[_team].points -= 1;\n\t\t\treturn false;\n\t\t}\n\t}\n\n\t// once the lottery has finished pay out the best teams\n\tfunction payoutWinningTeam() external returns (bool) {\n\n\t\t// if you are a winning team you get paid double the deposit (4 ether)\n\t    for (uint ii=0; ii<teamAddresses.length; ii++) {\n\t        if (teams[teamAddresses[ii]].points>=100) {\n\t\t\t\t// no gas limit on value transfer call (!!!)\n\t\t\t\tbool sent = teamAddresses[ii].call.value(4 ether)();\n\t\t\t\tteams[teamAddresses[ii]].points = 0;\n\t\t\t\treturn sent;\n\t\t\t}\n\t    }\n\t}\n\n\tfunction getTeamCount() view returns (uint256){\n\t\treturn teamAddresses.length;\n\t}\n\n\tfunction getTeamDetails(uint256 _num) view returns(string,address,uint256){\n\t\tTeam team = teams[teamAddresses[_num]];\n\t\treturn(team.name,teamAddresses[_num],team.points);\n\t}\n\n\tfunction resetOracle(uint8 _newSeed) internal {\n\t    oracle = new Oracle(_newSeed);\n\t}\n\n\t// catch any ether sent to the contract\n\tfunction() payable {\n\t\temit LogAddressPaid(msg.sender,msg.value);\n\t}\n\n\tfunction addAdmin(address _adminAddress) onlyAdmins {\n\t\tadmins[_adminAddress] = true;\n\t}\n\n}\n",
  "sourcePath": "/Users/jackleslie/Desktop/Extropy/LotteryGame/contracts/Lottery.sol",
  "compiler": {
    "name": "solc",
    "version": "0.4.24+commit.e67f0147.Emscripten.clang"
  },
  "schemaVersion": "2.0.1",
  "updatedAt": "2018-07-31T13:26:01.868Z"
}