{"abi":[{"type":"constructor","inputs":[{"name":"_seed","type":"uint8","internalType":"uint8"}],"stateMutability":"nonpayable"},{"type":"function","name":"getRandomNumber","inputs":[],"outputs":[{"name":"","type":"uint256","internalType":"uint256"}],"stateMutability":"view"}],"bytecode":{"object":"0x608060405234801561000f575f80fd5b5060405161012238038061012283398101604081905261002e91610046565b5f805460ff191660ff9290921691909117905561006d565b5f60208284031215610056575f80fd5b815160ff81168114610066575f80fd5b9392505050565b60a9806100795f395ff3fe6080604052348015600e575f80fd5b50600436106026575f3560e01c8063dbdff2c114602a575b5f80fd5b60306042565b60405190815260200160405180910390f35b5f805460509060ff16436055565b905090565b5f82606e57634e487b7160e01b5f52601260045260245ffd5b50069056fea2646970667358221220c429397ef9978f64190e861a866d036ef3aff68bb3d180011592dd320e45a16f64736f6c63430008140033","linkReferences":{}},"methodIdentifiers":{"getRandomNumber()":"dbdff2c1"},"id":1}